{
  "contractName": "transacaoEther",
  "abi": [
    {
      "inputs": [
        {
          "internalType": "address",
          "name": "",
          "type": "address"
        }
      ],
      "name": "carteira",
      "outputs": [
        {
          "internalType": "string",
          "name": "",
          "type": "string"
        }
      ],
      "stateMutability": "view",
      "type": "function"
    },
    {
      "inputs": [],
      "name": "dolar",
      "outputs": [
        {
          "internalType": "string",
          "name": "",
          "type": "string"
        }
      ],
      "stateMutability": "view",
      "type": "function"
    },
    {
      "inputs": [
        {
          "internalType": "address",
          "name": "",
          "type": "address"
        }
      ],
      "name": "meuEmprestimo",
      "outputs": [
        {
          "internalType": "string",
          "name": "",
          "type": "string"
        }
      ],
      "stateMutability": "view",
      "type": "function"
    },
    {
      "inputs": [
        {
          "internalType": "address",
          "name": "to",
          "type": "address"
        },
        {
          "internalType": "string",
          "name": "extrato",
          "type": "string"
        },
        {
          "internalType": "string",
          "name": "valor",
          "type": "string"
        }
      ],
      "name": "transferir",
      "outputs": [],
      "stateMutability": "payable",
      "type": "function"
    }
  ],
  "bytecode": "0x608060405234801561001057600080fd5b5061081b806100206000396000f3fe60806040526004361061003f5760003560e01c8063014ec76e146100445780631907590614610081578063267ce9211461009d57806373e3f030146100c8575b600080fd5b34801561005057600080fd5b5061006b600480360381019061006691906104dc565b610105565b60405161007891906105a2565b60405180910390f35b61009b600480360381019061009691906106f9565b6101a5565b005b3480156100a957600080fd5b506100b2610299565b6040516100bf91906105a2565b60405180910390f35b3480156100d457600080fd5b506100ef60048036038101906100ea91906104dc565b610327565b6040516100fc91906105a2565b60405180910390f35b60026020528060005260406000206000915090508054610124906107b3565b80601f0160208091040260200160405190810160405280929190818152602001828054610150906107b3565b801561019d5780601f106101725761010080835404028352916020019161019d565b820191906000526020600020905b81548152906001019060200180831161018057829003601f168201915b505050505081565b8273ffffffffffffffffffffffffffffffffffffffff166108fc349081150290604051600060405180830381858888f193505050501580156101eb573d6000803e3d6000fd5b5081600160003373ffffffffffffffffffffffffffffffffffffffff1673ffffffffffffffffffffffffffffffffffffffff168152602001908152602001600020908051906020019061023f9291906103c7565b5080600260003373ffffffffffffffffffffffffffffffffffffffff1673ffffffffffffffffffffffffffffffffffffffff16815260200190815260200160002090805190602001906102939291906103c7565b50505050565b600080546102a6906107b3565b80601f01602080910402602001604051908101604052809291908181526020018280546102d2906107b3565b801561031f5780601f106102f45761010080835404028352916020019161031f565b820191906000526020600020905b81548152906001019060200180831161030257829003601f168201915b505050505081565b60016020528060005260406000206000915090508054610346906107b3565b80601f0160208091040260200160405190810160405280929190818152602001828054610372906107b3565b80156103bf5780601f10610394576101008083540402835291602001916103bf565b820191906000526020600020905b8154815290600101906020018083116103a257829003601f168201915b505050505081565b8280546103d3906107b3565b90600052602060002090601f0160209004810192826103f5576000855561043c565b82601f1061040e57805160ff191683800117855561043c565b8280016001018555821561043c579182015b8281111561043b578251825591602001919060010190610420565b5b509050610449919061044d565b5090565b5b8082111561046657600081600090555060010161044e565b5090565b6000604051905090565b600080fd5b600080fd5b600073ffffffffffffffffffffffffffffffffffffffff82169050919050565b60006104a98261047e565b9050919050565b6104b98161049e565b81146104c457600080fd5b50565b6000813590506104d6816104b0565b92915050565b6000602082840312156104f2576104f1610474565b5b6000610500848285016104c7565b91505092915050565b600081519050919050565b600082825260208201905092915050565b60005b83811015610543578082015181840152602081019050610528565b83811115610552576000848401525b50505050565b6000601f19601f8301169050919050565b600061057482610509565b61057e8185610514565b935061058e818560208601610525565b61059781610558565b840191505092915050565b600060208201905081810360008301526105bc8184610569565b905092915050565b600080fd5b600080fd5b7f4e487b7100000000000000000000000000000000000000000000000000000000600052604160045260246000fd5b61060682610558565b810181811067ffffffffffffffff82111715610625576106246105ce565b5b80604052505050565b600061063861046a565b905061064482826105fd565b919050565b600067ffffffffffffffff821115610664576106636105ce565b5b61066d82610558565b9050602081019050919050565b82818337600083830152505050565b600061069c61069784610649565b61062e565b9050828152602081018484840111156106b8576106b76105c9565b5b6106c384828561067a565b509392505050565b600082601f8301126106e0576106df6105c4565b5b81356106f0848260208601610689565b91505092915050565b60008060006060848603121561071257610711610474565b5b6000610720868287016104c7565b935050602084013567ffffffffffffffff81111561074157610740610479565b5b61074d868287016106cb565b925050604084013567ffffffffffffffff81111561076e5761076d610479565b5b61077a868287016106cb565b9150509250925092565b7f4e487b7100000000000000000000000000000000000000000000000000000000600052602260045260246000fd5b600060028204905060018216806107cb57607f821691505b602082108114156107df576107de610784565b5b5091905056fea2646970667358221220113e4c3f5b9f2b33bf8c7612c7b446a4bd5fa86079997217f1b098fc0794157e64736f6c634300080b0033",
  "immutableReferences": {},
  "source": "// SPDX-License-Identifier: GPL-3.0\r\npragma solidity ^0.8.7;\r\n\r\ncontract transacaoEther{\r\n    \r\n     string public dolar;\r\n     mapping (address => string) public carteira;\r\n     mapping (address => string) public meuEmprestimo;\r\n     \r\n    function transferir(address to, string memory extrato, string memory valor) public payable{\r\n        payable(to).transfer(msg.value);\r\n        carteira[msg.sender] = extrato;\r\n        meuEmprestimo[msg.sender] = valor;\r\n    }\r\n}\r\n\r\n",
  "sourcePath": "C:\\Users\\mpaul\\OneDrive\\Documentos\\public-html\\LendCash\\contratos\\contracts\\transacaoEther.sol",
  "compiler": {
    "name": "solc",
    "version": "0.8.11+commit.d7f03943.Emscripten.clang"
  },
  "schemaVersion": "3.4.4",
  "updatedAt": "2022-06-20T01:21:13.715Z",
  "devdoc": {
    "kind": "dev",
    "methods": {},
    "version": 1
  },
  "userdoc": {
    "kind": "user",
    "methods": {},
    "version": 1
  }
}